:100000000C945D000C9485000C9485000C94850084
:100010000C9485000C9485000C9485000C9485004C
:100020000C9485000C9485000C9485000C9485003C
:100030000C9485000C9485000C9485000C9485002C
:100040000C94F0020C9485000C9485000C948500AF
:100050000C9485000C9485000C9485000C9485000C
:100060000C9485000C94850000000008000201003B
:100070000003040700000000000000000000000072
:10008000250028002B0000000000240027002A0083
:10009000040404040404040402020202020203032E
:1000A0000303030301020408102040800102040836
:1000B0001020010204081020730511241FBECFEF89
:1000C000D8E0DEBFCDBF11E0A0E0B1E0E8EFFFE097
:1000D00002C005900D92A235B107D9F721E0A2E543
:1000E000B1E001C01D92A337B207E1F710E0CDE502
:1000F000D0E004C02197FE010E94EF07CC35D10764
:10010000C9F70E943A030C94FA070C94000090E09F
:10011000FC01EC55FF4F2491FC01E057FF4F849107
:10012000882399F090E0880F991FFC01EA57FF4F50
:10013000A591B491FC01E458FF4F859194918FB73C
:10014000F894EC91E22BEC938FBF089580E48093B8
:100150007C0080917A00806480937A0080917A009C
:1001600086FDFCCF809178002091790090E0922B61
:10017000089590E0FC01E859FF4F2491FC01EC55F3
:10018000FF4F3491FC01E057FF4FE491EE2309F457
:100190003CC0222339F1233091F038F42130A9F00A
:1001A000223001F584B58F7D12C0273091F02830C0
:1001B000A1F02430B9F4809180008F7D03C080913C
:1001C00080008F77809380000DC084B58F7784BDC9
:1001D00009C08091B0008F7703C08091B0008F7DFF
:1001E0008093B000F0E0EE0FFF1FE458FF4FA591A1
:1001F000B4919FB7F894611104C08C913095382365
:1002000002C0EC913E2B3C939FBF08953FB7F894FA
:100210008091570190915801A0915901B0915A01D4
:1002200026B5A89B05C02F3F19F00196A11DB11D51
:100230003FBFBA2FA92F982F8827820F911DA11D8C
:10024000B11DBC01CD0142E0660F771F881F991FC9
:100250004A95D1F708958F929F92AF92BF92CF9215
:10026000DF92EF92FF926B017C010E9406014B012D
:100270005C01C114D104E104F104F1F00E94060113
:10028000DC01CB0188199909AA09BB09883E934072
:10029000A105B10570F321E0C21AD108E108F10807
:1002A00088EE880E83E0981EA11CB11CC114D104F5
:1002B000E104F10419F7DDCFFF90EF90DF90CF90CC
:1002C000BF90AF909F908F900895CF92DF92EF9262
:1002D000FF920F931F93CF93DF936C017A018B01F1
:1002E000C0E0D0E0CE15DF0581F0D8016D918D0121
:1002F000D601ED91FC910190F081E02DC6010995A8
:10030000892B11F02196EECF7E01C701DF91CF91AD
:100310001F910F91FF90EF90DF90CF900895CF93B2
:10032000DF93EC0160E08E810E94B90061E08E8174
:100330000E94B90060E08E810E94B9008BE891E0D4
:100340000197F1F7DF91CF910895CF92DF92EF926D
:10035000FF920F931F93CF93DF936C017C0187E093
:10036000E80EF11CC0E0D0E0062F10E0B8010C2E22
:1003700002C0759567950A94E2F76170F701819163
:100380007F010E94B9002196C430D10579F7C601DA
:10039000DF91CF911F910F91FF90EF90DF90CF9061
:1003A0000C948F01CF92DF92EF92FF920F931F93E5
:1003B000CF93DF93EC01F62E642F8C810E94B9005D
:1003C0008D818F3F19F060E00E94B9008F850F2D5D
:1003D00010E084FF25C06E0187E0C80ED11CE12C1F
:1003E000F12CB8010E2C02C0759567950A94E2F7BE
:1003F0006170F60181916F010E94B900FFEFEF1A61
:10040000FF0A88E0E816F10461F7CE01DF91CF9191
:100410001F910F91FF90EF90DF90CF900C948F0180
:10042000B80184E0759567958A95E1F7CE010E9441
:10043000A5016F2DCE01DF91CF911F910F91FF90FC
:10044000EF90DF90CF900C94A50140E0682F8BE5F2
:1004500091E00C94D20181E00E9425028BE39FE1A0
:100460000197F1F70895CF93DF93823028F09091B0
:100470006A01986090936A0180936E0110926F01F7
:1004800080E48093700180E18093710180E5809326
:10049000720180915F010E948700809160018F3F0F
:1004A00011F00E948700809161010E948700CBE5D6
:1004B000D1E09E012B55314080916A0184FD03C03B
:1004C00084E090E002C088E090E021962817390788
:1004D00024F48E810E948700ECCF8BE39DE001978E
:1004E000F1F760E080915F010E94B90060E08091C7
:1004F00061010E94B900809160018F3F19F060E0B6
:100500000E94B90080916A0184FD20C063E08BE500
:1005100091E00E94A501CBE4D6E4CE010197F1F76A
:1005200063E08BE591E00E94A5012197F1F763E07C
:100530008BE591E00E94A50183E592E00197F1F738
:1005400062E08BE591E00E94A50115C080620E94E7
:1005500025028BE496E40197F1F780916A018062AD
:100560000E94250283E592E00197F1F780916A01EC
:1005700080620E94250280916A0180620E942502A9
:1005800084E080936B018CE00E9425020E942B0284
:1005900082E080936C0186E0DF91CF910C9425027C
:1005A00041E00E94D20181E090E00895089580E04A
:1005B00090E00895009769F0FC0101900020E9F7B0
:1005C0003197AF01481B590BBC018BE591E00C94AE
:1005D000650180E090E008950C94DA020E94F5072E
:1005E0001F920F920FB60F9211242F933F938F9368
:1005F0009F93AF93BF938091530190915401A09129
:100600005501B09156013091520123E0230F2D374F
:1006100020F40196A11DB11D05C026E8230F029606
:10062000A11DB11D20935201809353019093540159
:10063000A0935501B09356018091570190915801B4
:10064000A0915901B0915A010196A11DB11D80934D
:10065000570190935801A0935901B0935A01BF914B
:10066000AF919F918F913F912F910F900FBE0F905F
:100670001F901895CF93DF93CDB7DEB7A1970FB634
:10068000F894DEBF0FBECDBF789484B5826084BD80
:1006900084B5816084BD85B5826085BD85B5816086
:1006A00085BD80916E00816080936E001092810004
:1006B00080918100826080938100809181008160BF
:1006C0008093810080918000816080938000809180
:1006D000B10084608093B1008091B000816080930C
:1006E000B00080917A00846080937A0080917A00D3
:1006F000826080937A0080917A00816080937A0092
:1007000080917A00806880937A001092C10082E024
:100710000E9433028CE091E00E94EC0268EE73E0EC
:1007200080E090E00E942B010E942B0280E0282EA6
:1007300080E0382E0E942B02E1E080916E01811151
:10074000E0E0E195F0E0E55AFE4F848980680E9480
:10075000250284E191E00E94EC02E0916E01E2301A
:1007600010F4E15001C0E1E0F0E0E55AFE4F848969
:1007700080680E9425020E94A600BC01990F880B88
:10078000990B0E94A60620E030E040EA50E40E9467
:100790005B0720E030E040E85AE30E945B076B0112
:1007A0007C014B015C019B01AC010E94C8078823BE
:1007B00019F083E291E01AC026013701E89477F836
:1007C0002FEF3FEF4FE75FE7C301B2010E94C80779
:1007D00081110FC02FEF3FEF4FE75FE7C301B20179
:1007E0000E94FE0518162CF487E291E00E94DA02BE
:1007F000A2C02FEF3FEF4FE75FE4C701B6010E94B1
:10080000560718161CF48BE291E0F0CF2FEF3FEF64
:100810004FE75FECC701B6010E94FE0587FDF3CFED
:1008200020E030E0A901C701B6010E94FE0587FF64
:100830000CC041E06DE28BE591E00E94D2014601DF
:100840005701B7FAB094B7F8B0942AE037ED43EA0D
:100850005BE3C501B4010E9492056B017C010E941B
:1008600075064B015C010E94A4069B01AC01C70107
:10087000B6010E9491052B013C0119A27E0181E283
:10088000E80EF11C0E2DDF2CC501B4012AE030E08A
:1008900040E050E00E94CD0749015A01605DF70138
:1008A00062937F01232B242B252B71F7CF010E940C
:1008B000DA0241E06EE28BE591E00E94D20113E0A2
:1008C0001150C9F120E030E040E251E4C301B2012F
:1008D0000E945B074B015C010E9475069B0140E092
:1008E00050E019A2E02EFD2C562E632E742EC52E3C
:1008F000CA01B9012AE030E040E050E00E94CD0793
:10090000605DF70162937F012115310541055105B5
:1009100079F7CF010E94DA02652D762D872D9C2D67
:100920000E94A4069B01AC01C501B4010E9491057F
:100930002B013C01C5CF8FE291E00E94EC02E091D7
:100940006E01E23010F4E15001C0E1E0F0E0E55A60
:10095000FE4F8489885F80680E9425020E94A6005D
:10096000BC01990F880B990B0E94A60620E030E08D
:1009700040EA50E40E945B0720E030EC4FE754E48B
:100980000E94030623E333E343EB5FE30E94560731
:1009900018161CF483E391E03AC00E94A600BC0143
:1009A000990F880B990B0E94A60620E030E040EAE0
:1009B00050E40E945B0720E030EC4FE754E40E94D3
:1009C00003062AE939E949E95FE30E945607181648
:1009D0006CF50E94A600BC01990F880B990B0E9430
:1009E000A60620E030E040EA50E40E945B0720E0E9
:1009F00030EC4FE754E40E94030623E333E343EB78
:100A00005FE30E94FE0587FF11C083E491E00E942E
:100A1000EC026AEF70E080E090E00E942B0121146C
:100A2000310409F487CE0E94000084CE0E94A60003
:100A3000BC01990F880B990B0E94A60620E030E0BC
:100A400040EA50E40E945B0720E030EC4FE754E4BA
:100A50000E9403062AE939E949E95FE30E94FE059D
:100A600087FF1FC00E94A600BC01990F880B990B3D
:100A70000E94A60620E030E040EA50E40E945B07B6
:100A800020E030EC4FE754E40E9403062AE939E9FC
:100A900049E95EE30E94560718161CF489E491E0C8
:100AA000B6CF0E94A600BC01990F880B990B0E943B
:100AB000A60620E030E040EA50E40E945B0720E018
:100AC00030EC4FE754E40E9403062AE939E949E98A
:100AD0005EE30E94FE0587FF03C08CE391E097CFA1
:100AE00081E491E094CFEBE5F1E01382128284E09F
:100AF00091E0918380838CE084838FEF85838BE00A
:100B0000868385E0878384E0808783E0818782E035
:100B100082871386148615861686178681E00C94C4
:100B200033025058BB27AA270E94A9050C941C0722
:100B30000E940E0738F00E94150720F039F49F3FFD
:100B400019F426F40C940B070EF4E095E7FB0C94D3
:100B50000507E92F0E942D0758F3BA17620773079C
:100B60008407950720F079F4A6F50C944F070EF44E
:100B7000E0950B2EBA2FA02D0B01B90190010C01AD
:100B8000CA01A0011124FF27591B99F0593F50F4C5
:100B9000503E68F11A16F040A22F232F342F44271D
:100BA000585FF3CF469537952795A795F040539515
:100BB000C9F77EF41F16BA0B620B730B840BBAF0E5
:100BC0009150A1F0FF0FBB1F661F771F881FC2F750
:100BD0000EC0BA0F621F731F841F48F48795779564
:100BE0006795B795F7959E3F08F0B0CF9395880F1E
:100BF00008F09927EE0F9795879508950E94E106D2
:100C000008F481E008950E9417060C941C070E94C6
:100C1000150758F00E940E0740F029F45F3F29F0B5
:100C20000C94050751110C9450070C940B070E946B
:100C30002D0768F39923B1F3552391F3951B550BB9
:100C4000BB27AA2762177307840738F09F5F5F4F9F
:100C5000220F331F441FAA1FA9F335D00E2E3AF0DE
:100C6000E0E832D091505040E695001CCAF72BD0F6
:100C7000FE2F29D0660F771F881FBB1F2617370747
:100C80004807AB07B0E809F0BB0B802DBF01FF2779
:100C900093585F4F3AF09E3F510578F00C9405074A
:100CA0000C9450075F3FE4F3983ED4F38695779514
:100CB0006795B795F7959F5FC9F7880F911D969532
:100CC000879597F90895E1E0660F771F881FBB1F8E
:100CD000621773078407BA0720F0621B730B840B3B
:100CE000BA0BEE1F88F7E09508950E94350788F04B
:100CF0009F5798F0B92F9927B751B0F0E1F0660FE0
:100D0000771F881F991F1AF0BA95C9F714C0B13020
:100D100091F00E944F07B1E008950C944F07672FA0
:100D2000782F8827B85F39F0B93FCCF3869577954F
:100D30006795B395D9F73EF4909580957095619538
:100D40007F4F8F4F9F4F0895E89409C097FB3EF463
:100D500090958095709561957F4F8F4F9F4F992308
:100D6000A9F0F92F96E9BB279395F6958795779586
:100D70006795B795F111F8CFFAF4BB0F11F460FF46
:100D80001BC06F5F7F4F8F4F9F4F16C0882311F09E
:100D900096E911C0772321F09EE8872F762F05C0B2
:100DA000662371F096E8862F70E060E02AF09A954D
:100DB000660F771F881FDAF7880F9695879597F942
:100DC0000895990F0008550FAA0BE0E8FEEF1616DC
:100DD0001706E807F907C0F012161306E407F5072F
:100DE00098F0621B730B840B950B39F40A2661F0A3
:100DF000232B242B252B21F408950A2609F4A14046
:100E0000A6958FEF811D811D089597F99F6780E852
:100E100070E060E008959FEF80EC089500240A944C
:100E20001616170618060906089500240A941216C5
:100E30001306140605060895092E0394000C11F4F8
:100E4000882352F0BB0F40F4BF2B11F460FF04C0A5
:100E50006F5F7F4F8F4F9F4F089557FD9058440FFE
:100E6000551F59F05F3F71F04795880F97FB991F09
:100E700061F09F3F79F087950895121613061406C6
:100E8000551FF2CF4695F1DF08C016161706180653
:100E9000991FF1CF86957105610508940895E8942E
:100EA000BB2766277727CB0197F908950E94E106B3
:100EB00008F48FEF08950E946E070C941C070E949F
:100EC0000E0738F00E94150720F0952311F00C94BE
:100ED00005070C940B0711240C9450070E942D0752
:100EE00070F3959FC1F3950F50E0551F629FF0017D
:100EF000729FBB27F00DB11D639FAA27F00DB11D96
:100F0000AA1F649F6627B00DA11D661F829F22271E
:100F1000B00DA11D621F739FB00DA11D621F839FA5
:100F2000A00D611D221F749F3327A00D611D231F7B
:100F3000849F600D211D822F762F6A2F11249F57C9
:100F400050409AF0F1F088234AF0EE0FFF1FBB1FCC
:100F5000661F771F881F91505040A9F79E3F51058B
:100F600080F00C9405070C9450075F3FE4F3983E23
:100F7000D4F3869577956795B795F795E7959F5F35
:100F8000C1F7FE2B880F911D9695879597F90895C7
:100F90000E94E106880B990B0895A1E21A2EAA1B64
:100FA000BB1BFD010DC0AA1FBB1FEE1FFF1FA21719
:100FB000B307E407F50720F0A21BB30BE40BF50B16
:100FC000661F771F881F991F1A9469F7609570959F
:100FD000809590959B01AC01BD01CF010895EE0F66
:100FE000FF1F0590F491E02D099481E090E0F894C2
:080FF0000C94FA07F894FFCFFE
:100FF80000000000D0026501D702D60241524455D4
:10100800494E4F0050726F6261646F722070696C54
:101018006173006E616E00696E66006F76660056D9
:101028003D3E00506572666563746F004D616C6F7C
:101038000020004275656E6F00526567756C6172BD
:021048000000A6
:107E0000112484B714BE81FFF0D085E080938100F7
:107E100082E08093C00088E18093C10086E0809377
:107E2000C20080E18093C4008EE0C9D0259A86E02C
:107E300020E33CEF91E0309385002093840096BBD3
:107E4000B09BFECF1D9AA8958150A9F7CC24DD24C4
:107E500088248394B5E0AB2EA1E19A2EF3E0BF2EE7
:107E6000A2D0813461F49FD0082FAFD0023811F036
:107E7000013811F484E001C083E08DD089C08234E0
:107E800011F484E103C0853419F485E0A6D080C0E4
:107E9000853579F488D0E82EFF2485D0082F10E0AE
:107EA000102F00270E291F29000F111F8ED06801E7
:107EB0006FC0863521F484E090D080E0DECF843638
:107EC00009F040C070D06FD0082F6DD080E0C81688
:107ED00080E7D80618F4F601B7BEE895C0E0D1E017
:107EE00062D089930C17E1F7F0E0CF16F0E7DF06D8
:107EF00018F0F601B7BEE89568D007B600FCFDCFD4
:107F0000A601A0E0B1E02C9130E011968C91119780
:107F100090E0982F8827822B932B1296FA010C0160
:107F200087BEE89511244E5F5F4FF1E0A038BF0790
:107F300051F7F601A7BEE89507B600FCFDCF97BE46
:107F4000E89526C08437B1F42ED02DD0F82E2BD052
:107F50003CD0F601EF2C8F010F5F1F4F84911BD097
:107F6000EA94F801C1F70894C11CD11CFA94CF0C13
:107F7000D11C0EC0853739F428D08EE10CD085E9AC
:107F80000AD08FE07ACF813511F488E018D01DD067
:107F900080E101D065CF982F8091C00085FFFCCF94
:107FA0009093C60008958091C00087FFFCCF809118
:107FB000C00084FD01C0A8958091C6000895E0E648
:107FC000F0E098E1908380830895EDDF803219F02E
:107FD00088E0F5DFFFCF84E1DECF1F93182FE3DFCA
:107FE0001150E9F7F2DF1F91089580E0E8DFEE27F6
:047FF000FF270994CA
:027FFE00040479
:0400000300007E007B
:00000001FF
